{
  "contractName": "SocailNetwork",
  "abi": [
    {
      "constant": true,
      "inputs": [],
      "name": "name",
      "outputs": [
        {
          "name": "",
          "type": "string"
        }
      ],
      "payable": false,
      "stateMutability": "view",
      "type": "function",
      "signature": "0x06fdde03"
    },
    {
      "constant": true,
      "inputs": [
        {
          "name": "",
          "type": "uint256"
        }
      ],
      "name": "posts",
      "outputs": [
        {
          "name": "id",
          "type": "uint256"
        },
        {
          "name": "content",
          "type": "string"
        },
        {
          "name": "tipAmount",
          "type": "uint256"
        },
        {
          "name": "author",
          "type": "address"
        }
      ],
      "payable": false,
      "stateMutability": "view",
      "type": "function",
      "signature": "0x0b1e7f83"
    },
    {
      "constant": true,
      "inputs": [],
      "name": "PostCount",
      "outputs": [
        {
          "name": "",
          "type": "uint104"
        }
      ],
      "payable": false,
      "stateMutability": "view",
      "type": "function",
      "signature": "0xa2d1eceb"
    },
    {
      "inputs": [],
      "payable": false,
      "stateMutability": "nonpayable",
      "type": "constructor",
      "signature": "constructor"
    },
    {
      "anonymous": false,
      "inputs": [
        {
          "indexed": false,
          "name": "id",
          "type": "uint256"
        },
        {
          "indexed": false,
          "name": "content",
          "type": "string"
        },
        {
          "indexed": false,
          "name": "tipAmount",
          "type": "uint256"
        },
        {
          "indexed": false,
          "name": "author",
          "type": "address"
        }
      ],
      "name": "PostCreated",
      "type": "event",
      "signature": "0xc66336337a24e513f909b3b25119854dba8385d51307dbc7d31d1b2805e19c7e"
    },
    {
      "anonymous": false,
      "inputs": [
        {
          "indexed": false,
          "name": "id",
          "type": "uint256"
        },
        {
          "indexed": false,
          "name": "content",
          "type": "string"
        },
        {
          "indexed": false,
          "name": "tipAmount",
          "type": "uint256"
        },
        {
          "indexed": false,
          "name": "author",
          "type": "address"
        }
      ],
      "name": "PostTipped",
      "type": "event",
      "signature": "0x20988fe475351e75813672abada1dddb7ac67cbbeb81e61e1160b8329d8cdf1c"
    },
    {
      "constant": false,
      "inputs": [
        {
          "name": "_content",
          "type": "string"
        }
      ],
      "name": "createPost",
      "outputs": [],
      "payable": false,
      "stateMutability": "nonpayable",
      "type": "function",
      "signature": "0xc7303c61"
    },
    {
      "constant": false,
      "inputs": [
        {
          "name": "_id",
          "type": "uint256"
        }
      ],
      "name": "tipCreate",
      "outputs": [],
      "payable": true,
      "stateMutability": "payable",
      "type": "function",
      "signature": "0x5e53a65e"
    }
  ],
  "bytecode": "0x60806040526000600160006101000a8154816cffffffffffffffffffffffffff02191690836cffffffffffffffffffffffffff16021790555034801561004457600080fd5b506040805190810160405280601081526020017f4d79204669727374204e6574576f726b0000000000000000000000000000000081525060009080519060200190610090929190610096565b5061013b565b828054600181600116156101000203166002900490600052602060002090601f016020900481019282601f106100d757805160ff1916838001178555610105565b82800160010185558215610105579182015b828111156101045782518255916020019190600101906100e9565b5b5090506101129190610116565b5090565b61013891905b8082111561013457600081600090555060010161011c565b5090565b90565b610b8b8061014a6000396000f3fe60806040526004361061006d576000357c0100000000000000000000000000000000000000000000000000000000900463ffffffff16806306fdde03146100725780630b1e7f83146101025780635e53a65e146101f7578063a2d1eceb14610225578063c7303c611461026e575b600080fd5b34801561007e57600080fd5b50610087610336565b6040518080602001828103825283818151815260200191508051906020019080838360005b838110156100c75780820151818401526020810190506100ac565b50505050905090810190601f1680156100f45780820380516001836020036101000a031916815260200191505b509250505060405180910390f35b34801561010e57600080fd5b5061013b6004803603602081101561012557600080fd5b81019080803590602001909291905050506103d4565b60405180858152602001806020018481526020018373ffffffffffffffffffffffffffffffffffffffff1673ffffffffffffffffffffffffffffffffffffffff168152602001828103825285818151815260200191508051906020019080838360005b838110156101b957808201518184015260208101905061019e565b50505050905090810190601f1680156101e65780820380516001836020036101000a031916815260200191505b509550505050505060405180910390f35b6102236004803603602081101561020d57600080fd5b81019080803590602001909291905050506104bc565b005b34801561023157600080fd5b5061023a6107cd565b60405180826cffffffffffffffffffffffffff166cffffffffffffffffffffffffff16815260200191505060405180910390f35b34801561027a57600080fd5b506103346004803603602081101561029157600080fd5b81019080803590602001906401000000008111156102ae57600080fd5b8201836020820111156102c057600080fd5b803590602001918460018302840111640100000000831117156102e257600080fd5b91908080601f016020809104026020016040519081016040528093929190818152602001838380828437600081840152601f19601f8201169050808301925050505050505091929192905050506107ec565b005b60008054600181600116156101000203166002900480601f0160208091040260200160405190810160405280929190818152602001828054600181600116156101000203166002900480156103cc5780601f106103a1576101008083540402835291602001916103cc565b820191906000526020600020905b8154815290600101906020018083116103af57829003601f168201915b505050505081565b6002602052806000526040600020600091509050806000015490806001018054600181600116156101000203166002900480601f0160208091040260200160405190810160405280929190818152602001828054600181600116156101000203166002900480156104865780601f1061045b57610100808354040283529160200191610486565b820191906000526020600020905b81548152906001019060200180831161046957829003601f168201915b5050505050908060020154908060030160009054906101000a900473ffffffffffffffffffffffffffffffffffffffff16905084565b6104c4610a7b565b600260008381526020019081526020016000206080604051908101604052908160008201548152602001600182018054600181600116156101000203166002900480601f0160208091040260200160405190810160405280929190818152602001828054600181600116156101000203166002900480156105865780601f1061055b57610100808354040283529160200191610586565b820191906000526020600020905b81548152906001019060200180831161056957829003601f168201915b50505050508152602001600282015481526020016003820160009054906101000a900473ffffffffffffffffffffffffffffffffffffffff1673ffffffffffffffffffffffffffffffffffffffff1673ffffffffffffffffffffffffffffffffffffffff168152505090506000816060015190508073ffffffffffffffffffffffffffffffffffffffff166108fc349081150290604051600060405180830381858888f19350505050158015610640573d6000803e3d6000fd5b5034826040015101826040018181525050816002600085815260200190815260200160002060008201518160000155602082015181600101908051906020019061068b929190610aba565b506040820151816002015560608201518160030160006101000a81548173ffffffffffffffffffffffffffffffffffffffff021916908373ffffffffffffffffffffffffffffffffffffffff1602179055509050507f20988fe475351e75813672abada1dddb7ac67cbbeb81e61e1160b8329d8cdf1c83836020015184604001518460405180858152602001806020018481526020018373ffffffffffffffffffffffffffffffffffffffff1673ffffffffffffffffffffffffffffffffffffffff168152602001828103825285818151815260200191508051906020019080838360005b8381101561078b578082015181840152602081019050610770565b50505050905090810190601f1680156107b85780820380516001836020036101000a031916815260200191505b509550505050505060405180910390a1505050565b600160009054906101000a90046cffffffffffffffffffffffffff1681565b600081511115156107fc57600080fd5b6001600081819054906101000a90046cffffffffffffffffffffffffff168092919060010191906101000a8154816cffffffffffffffffffffffffff02191690836cffffffffffffffffffffffffff16021790555050608060405190810160405280600160009054906101000a90046cffffffffffffffffffffffffff166cffffffffffffffffffffffffff168152602001828152602001600081526020013373ffffffffffffffffffffffffffffffffffffffff1681525060026000600160009054906101000a90046cffffffffffffffffffffffffff166cffffffffffffffffffffffffff168152602001908152602001600020600082015181600001556020820151816001019080519060200190610918929190610aba565b506040820151816002015560608201518160030160006101000a81548173ffffffffffffffffffffffffffffffffffffffff021916908373ffffffffffffffffffffffffffffffffffffffff1602179055509050507fc66336337a24e513f909b3b25119854dba8385d51307dbc7d31d1b2805e19c7e600160009054906101000a90046cffffffffffffffffffffffffff168260003360405180856cffffffffffffffffffffffffff168152602001806020018481526020018373ffffffffffffffffffffffffffffffffffffffff1673ffffffffffffffffffffffffffffffffffffffff168152602001828103825285818151815260200191508051906020019080838360005b83811015610a3b578082015181840152602081019050610a20565b50505050905090810190601f168015610a685780820380516001836020036101000a031916815260200191505b509550505050505060405180910390a150565b608060405190810160405280600081526020016060815260200160008152602001600073ffffffffffffffffffffffffffffffffffffffff1681525090565b828054600181600116156101000203166002900490600052602060002090601f016020900481019282601f10610afb57805160ff1916838001178555610b29565b82800160010185558215610b29579182015b82811115610b28578251825591602001919060010190610b0d565b5b509050610b369190610b3a565b5090565b610b5c91905b80821115610b58576000816000905550600101610b40565b5090565b9056fea165627a7a723058201c4a96782b5ff1a4bed4c49a89a9f7d5fc868144b3d8c160b8e218238d3cb66d0029",
  "source": "pragma solidity ^0.5.0;\n\ncontract SocailNetwork {\n    string public name;\n    uint104 public PostCount = 0;\n\n    mapping(uint256 => Post) public posts; // key valued paired like associated array or declaring array\n\n    struct Post {\n        // typhinting like typescript or like mongoose schema\n        uint256 id;\n        string content;\n        uint256 tipAmount;\n        address payable author; //sender\n    }\n\n    event PostCreated(\n        uint256 id,\n        string content,\n        uint256 tipAmount,\n        address payable author\n    );\n    event PostTipped(\n        uint256 id,\n        string content,\n        uint256 tipAmount,\n        address payable author\n    );\n\n    constructor() public {\n        name = \"My First NetWork\";\n    }\n\n    function createPost(string memory _content) public {\n        require(bytes(_content).length > 0); //validation rules\n\n        PostCount++;\n\n        posts[PostCount] = Post(PostCount, _content, 0, msg.sender); //msg.sender is like a global object that truffle support for finding the sender of the or address\n\n        //trigger events - to track the value inside the struct\n\n        emit PostCreated(PostCount, _content, 0, msg.sender);\n    }\n\n    function tipCreate(uint256 _id) public payable {\n        //payable to allow the function to pay actually\n        //fetch the post\n        Post memory _post = posts[_id];\n        //fetch the author\n        address payable _author = _post.author;\n        //paid the author\n        address(_author).transfer(msg.value);\n\n        //increment the tip amount\n        _post.tipAmount = _post.tipAmount + msg.value;\n\n        //update the post\n        posts[_id] = _post;\n        //trigger the event\n        emit PostTipped(_id, _post.content, _post.tipAmount, _author);\n    }\n}\n\n// run truffle compile\n\n// will create abs folder and new files which is the compilation\n// of solidity code into json\n",
  "sourcePath": "/Users/arkar/dev/blockchain-beginner/starter_kit/src/contracts/SocialNetwork.sol",
  "compiler": {
    "name": "solc",
    "version": "0.5.0+commit.1d4f565a.Emscripten.clang"
  },
  "schemaVersion": "3.0.2",
  "updatedAt": "2022-02-20T14:36:17.953Z",
  "devdoc": {
    "methods": {}
  },
  "userdoc": {
    "methods": {}
  }
}